{
    "contractName": "Ballot",
    "abi": [
        {
            "inputs": [],
            "stateMutability": "nonpayable",
            "type": "constructor"
        },
        {
            "inputs": [
                {
                    "internalType": "uint256",
                    "name": "",
                    "type": "uint256"
                }
            ],
            "name": "proposals",
            "outputs": [
                {
                    "internalType": "bytes32",
                    "name": "name",
                    "type": "bytes32"
                },
                {
                    "internalType": "uint256",
                    "name": "voteCount",
                    "type": "uint256"
                }
            ],
            "stateMutability": "view",
            "type": "function"
        },
        {
            "inputs": [
                {
                    "internalType": "uint256",
                    "name": "proposal",
                    "type": "uint256"
                }
            ],
            "name": "vote",
            "outputs": [],
            "stateMutability": "nonpayable",
            "type": "function"
        },
        {
            "inputs": [
                {
                    "internalType": "address",
                    "name": "",
                    "type": "address"
                }
            ],
            "name": "voters",
            "outputs": [
                {
                    "internalType": "bool",
                    "name": "voted",
                    "type": "bool"
                },
                {
                    "internalType": "uint256",
                    "name": "vote",
                    "type": "uint256"
                }
            ],
            "stateMutability": "view",
            "type": "function"
        },
        {
            "inputs": [],
            "name": "winnerName",
            "outputs": [
                {
                    "internalType": "bytes32",
                    "name": "winnerName_",
                    "type": "bytes32"
                }
            ],
            "stateMutability": "view",
            "type": "function"
        },
        {
            "inputs": [],
            "name": "winningProposal",
            "outputs": [
                {
                    "internalType": "uint256",
                    "name": "winningProposal_",
                    "type": "uint256"
                }
            ],
            "stateMutability": "view",
            "type": "function"
        }
    ],
    "bytecode": "608060405234801561001057600080fd5b506040805180820190915262666f6f60e81b8152623130b960e91b602082015260005b60028110156100a4576001604051806040016040528084846002811061005b5761005b6100ab565b602090810291909101518252600091810182905283546001818101865594835291819020835160029093020191825591909101519101558061009c816100c1565b915050610033565b50506100e8565b634e487b7160e01b600052603260045260246000fd5b6000600182016100e157634e487b7160e01b600052601160045260246000fd5b5060010190565b61033c806100f76000396000f3fe608060405234801561001057600080fd5b50600436106100575760003560e01c80630121b93f1461005c578063013cf08b14610071578063609ff1bd1461009e578063a3ec138d146100b4578063e2ba53f0146100f8575b600080fd5b61006f61006a366004610280565b610100565b005b61008461007f366004610280565b6101a2565b604080519283526020830191909152015b60405180910390f35b6100a66101d0565b604051908152602001610095565b6100e16100c2366004610299565b6000602081905290815260409020805460019091015460ff9091169082565b604080519215158352602083019190915201610095565b6100a661024d565b336000908152602081905260409020805460ff16156101565760405162461bcd60e51b815260206004820152600e60248201526d20b63932b0b23c903b37ba32b21760911b604482015260640160405180910390fd5b805460ff19166001908117825581810183905580548390811061017b5761017b6102c9565b600091825260208220600160029092020101805491610199836102df565b91905055505050565b600181815481106101b257600080fd5b60009182526020909120600290910201805460019091015490915082565b600080805b6001548110156102485781600182815481106101f3576101f36102c9565b9060005260206000209060020201600101541115610236576001818154811061021e5761021e6102c9565b90600052602060002090600202016001015491508092505b80610240816102df565b9150506101d5565b505090565b600060016102596101d0565b81548110610269576102696102c9565b906000526020600020906002020160000154905090565b60006020828403121561029257600080fd5b5035919050565b6000602082840312156102ab57600080fd5b81356001600160a01b03811681146102c257600080fd5b9392505050565b634e487b7160e01b600052603260045260246000fd5b6000600182016102ff57634e487b7160e01b600052601160045260246000fd5b506001019056fea2646970667358221220d8910333fb45a621bf8d8fcdff740e48a125ac28ed6e644b189c03fc4e99de9364736f6c63430008110033",
    "sourcePath": "d:/github-projects/blockchain-voting-system/express-server/contracts/Ballot.sol",
    "compiler": {
        "name": "solc",
        "version": "0.8.17+commit.8df45f5f"
    },
    "functionHashes": {
        "proposals(uint256)": "013cf08b",
        "vote(uint256)": "0121b93f",
        "voters(address)": "a3ec138d",
        "winnerName()": "e2ba53f0",
        "winningProposal()": "609ff1bd"
    },
    "gasEstimates": {
        "creation": {
            "codeDepositCost": "165600",
            "executionCost": "infinite",
            "totalCost": "infinite"
        },
        "external": {
            "proposals(uint256)": "6720",
            "vote(uint256)": "75231",
            "voters(address)": "4691",
            "winnerName()": "infinite",
            "winningProposal()": "infinite"
        }
    }
}