{
  "contractName": "Ballot",
  "abi": [
    {
      "inputs": [],
      "stateMutability": "nonpayable",
      "type": "constructor"
    },
    {
      "inputs": [
        {
          "internalType": "uint256",
          "name": "",
          "type": "uint256"
        }
      ],
      "name": "proposals",
      "outputs": [
        {
          "internalType": "bytes32",
          "name": "name",
          "type": "bytes32"
        },
        {
          "internalType": "uint256",
          "name": "voteCount",
          "type": "uint256"
        }
      ],
      "stateMutability": "view",
      "type": "function",
      "constant": true
    },
    {
      "inputs": [
        {
          "internalType": "address",
          "name": "",
          "type": "address"
        }
      ],
      "name": "voters",
      "outputs": [
        {
          "internalType": "bool",
          "name": "voted",
          "type": "bool"
        },
        {
          "internalType": "uint256",
          "name": "vote",
          "type": "uint256"
        }
      ],
      "stateMutability": "view",
      "type": "function",
      "constant": true
    },
    {
      "inputs": [],
      "name": "getMyVote",
      "outputs": [
        {
          "components": [
            {
              "internalType": "bool",
              "name": "voted",
              "type": "bool"
            },
            {
              "internalType": "uint256",
              "name": "vote",
              "type": "uint256"
            }
          ],
          "internalType": "struct Ballot.Voter",
          "name": "",
          "type": "tuple"
        }
      ],
      "stateMutability": "view",
      "type": "function",
      "constant": true
    },
    {
      "inputs": [],
      "name": "getNumOfCandidates",
      "outputs": [
        {
          "internalType": "uint256",
          "name": "",
          "type": "uint256"
        }
      ],
      "stateMutability": "view",
      "type": "function",
      "constant": true
    },
    {
      "inputs": [
        {
          "internalType": "uint8",
          "name": "candidateID",
          "type": "uint8"
        }
      ],
      "name": "getCandidate",
      "outputs": [
        {
          "internalType": "bytes32",
          "name": "",
          "type": "bytes32"
        },
        {
          "internalType": "uint256",
          "name": "",
          "type": "uint256"
        }
      ],
      "stateMutability": "view",
      "type": "function",
      "constant": true
    },
    {
      "inputs": [
        {
          "internalType": "uint256",
          "name": "proposal",
          "type": "uint256"
        }
      ],
      "name": "vote",
      "outputs": [],
      "stateMutability": "nonpayable",
      "type": "function"
    },
    {
      "inputs": [],
      "name": "winningProposal",
      "outputs": [
        {
          "internalType": "uint256",
          "name": "winningProposal_",
          "type": "uint256"
        }
      ],
      "stateMutability": "view",
      "type": "function",
      "constant": true
    },
    {
      "inputs": [],
      "name": "winnerName",
      "outputs": [
        {
          "internalType": "bytes32",
          "name": "winnerName_",
          "type": "bytes32"
        }
      ],
      "stateMutability": "view",
      "type": "function",
      "constant": true
    }
  ],
  "bytecode": "0x608060405234801561001057600080fd5b50600060405180604001604052807f666f6f000000000000000000000000000000000000000000000000000000000081526020017f6261720000000000000000000000000000000000000000000000000000000000815250905060005b60028110156100f75760016040518060400160405280848460028110610096576100956100fe565b5b60200201518152602001600081525090806001815401808255809150506001900390600052602060002090600202016000909190919091506000820151816000015560208201518160010155505080806100ef90610166565b91505061006d565b50506101ae565b7f4e487b7100000000000000000000000000000000000000000000000000000000600052603260045260246000fd5b7f4e487b7100000000000000000000000000000000000000000000000000000000600052601160045260246000fd5b6000819050919050565b60006101718261015c565b91507fffffffffffffffffffffffffffffffffffffffffffffffffffffffffffffffff82036101a3576101a261012d565b5b600182019050919050565b6108b5806101bd6000396000f3fe608060405234801561001057600080fd5b50600436106100885760003560e01c8063a3ec138d1161005b578063a3ec138d14610116578063cde9370f14610147578063e2ba53f014610178578063e8685ba11461019657610088565b80630121b93f1461008d578063013cf08b146100a9578063609ff1bd146100da5780638cb647d3146100f8575b600080fd5b6100a760048036038101906100a2919061050b565b6101b4565b005b6100c360048036038101906100be919061050b565b6102ad565b6040516100d1929190610560565b60405180910390f35b6100e26102e1565b6040516100ef9190610589565b60405180910390f35b610100610369565b60405161010d91906105fd565b60405180910390f35b610130600480360381019061012b9190610676565b6103e4565b60405161013e9291906106b2565b60405180910390f35b610161600480360381019061015c9190610714565b610415565b60405161016f929190610560565b60405180910390f35b610180610473565b60405161018d9190610741565b60405180910390f35b61019e6104a7565b6040516101ab9190610589565b60405180910390f35b60008060003373ffffffffffffffffffffffffffffffffffffffff1673ffffffffffffffffffffffffffffffffffffffff16815260200190815260200160002090508060000160009054906101000a900460ff1615610248576040517f08c379a000000000000000000000000000000000000000000000000000000000815260040161023f906107b9565b60405180910390fd5b60018160000160006101000a81548160ff02191690831515021790555081816001018190555060018281548110610282576102816107d9565b5b906000526020600020906002020160010160008154809291906102a490610837565b91905055505050565b600181815481106102bd57600080fd5b90600052602060002090600202016000915090508060000154908060010154905082565b6000806000905060005b60018054905081101561036457816001828154811061030d5761030c6107d9565b5b90600052602060002090600202016001015411156103515760018181548110610339576103386107d9565b5b90600052602060002090600202016001015491508092505b808061035c90610837565b9150506102eb565b505090565b6103716104b4565b6000803373ffffffffffffffffffffffffffffffffffffffff1673ffffffffffffffffffffffffffffffffffffffff1681526020019081526020016000206040518060400160405290816000820160009054906101000a900460ff16151515158152602001600182015481525050905090565b60006020528060005260406000206000915090508060000160009054906101000a900460ff16908060010154905082565b60008060018360ff168154811061042f5761042e6107d9565b5b90600052602060002090600202016000015460018460ff1681548110610458576104576107d9565b5b90600052602060002090600202016001015491509150915091565b6000600161047f6102e1565b815481106104905761048f6107d9565b5b906000526020600020906002020160000154905090565b6000600180549050905090565b6040518060400160405280600015158152602001600081525090565b600080fd5b6000819050919050565b6104e8816104d5565b81146104f357600080fd5b50565b600081359050610505816104df565b92915050565b600060208284031215610521576105206104d0565b5b600061052f848285016104f6565b91505092915050565b6000819050919050565b61054b81610538565b82525050565b61055a816104d5565b82525050565b60006040820190506105756000830185610542565b6105826020830184610551565b9392505050565b600060208201905061059e6000830184610551565b92915050565b60008115159050919050565b6105b9816105a4565b82525050565b6105c8816104d5565b82525050565b6040820160008201516105e460008501826105b0565b5060208201516105f760208501826105bf565b50505050565b600060408201905061061260008301846105ce565b92915050565b600073ffffffffffffffffffffffffffffffffffffffff82169050919050565b600061064382610618565b9050919050565b61065381610638565b811461065e57600080fd5b50565b6000813590506106708161064a565b92915050565b60006020828403121561068c5761068b6104d0565b5b600061069a84828501610661565b91505092915050565b6106ac816105a4565b82525050565b60006040820190506106c760008301856106a3565b6106d46020830184610551565b9392505050565b600060ff82169050919050565b6106f1816106db565b81146106fc57600080fd5b50565b60008135905061070e816106e8565b92915050565b60006020828403121561072a576107296104d0565b5b6000610738848285016106ff565b91505092915050565b60006020820190506107566000830184610542565b92915050565b600082825260208201905092915050565b7f416c726561647920766f7465642e000000000000000000000000000000000000600082015250565b60006107a3600e8361075c565b91506107ae8261076d565b602082019050919050565b600060208201905081810360008301526107d281610796565b9050919050565b7f4e487b7100000000000000000000000000000000000000000000000000000000600052603260045260246000fd5b7f4e487b7100000000000000000000000000000000000000000000000000000000600052601160045260246000fd5b6000610842826104d5565b91507fffffffffffffffffffffffffffffffffffffffffffffffffffffffffffffffff820361087457610873610808565b5b60018201905091905056fea26469706673582212209a103c43321904e8166e19cb0399b25984d5dbcd8527b508c7389be7f37d408664736f6c63430008110033",
  "immutableReferences": {},
  "source": "// SPDX-License-Identifier: GPL-3.0\r\npragma solidity >=0.7.0 <0.9.0;\r\n\r\n/// @title Voting with delegation.\r\ncontract Ballot {\r\n    // This declares a new complex type which will\r\n    // be used for variables later.\r\n    // It will represent a single voter.\r\n    struct Voter {\r\n        // uint weight; // weight is accumulated by delegation\r\n        bool voted; // if true, that person already voted\r\n        // address delegate; // person delegated to\r\n        uint256 vote; // index of the voted proposal\r\n    }\r\n\r\n    // This is a type for a single proposal.\r\n    struct Proposal {\r\n        bytes32 name; // short name (up to 32 bytes)\r\n        uint256 voteCount; // number of accumulated votes\r\n    }\r\n\r\n    // address public chairperson;\r\n\r\n    // This declares a state variable that\r\n    // stores a `Voter` struct for each possible address.\r\n    mapping(address => Voter) public voters;\r\n\r\n    // A dynamically-sized array of `Proposal` structs.\r\n    Proposal[] public proposals;\r\n\r\n    /// Create a new ballot to choose one of `proposalNames`.\r\n    // constructor(bytes32[] memory proposalNames) {\r\n    constructor() {\r\n        // chairperson = msg.sender;\r\n        // voters[chairperson].weight = 1;\r\n        bytes32[2] memory proposalNames = [bytes32(\"foo\"), bytes32(\"bar\")];\r\n\r\n        // string[2] memory proposalNames = [\"foo\", \"bar\"];\r\n\r\n        // For each of the provided proposal names,\r\n        // create a new proposal object and add it\r\n        // to the end of the array.\r\n        for (uint256 i = 0; i < proposalNames.length; i++) {\r\n            // `Proposal({...})` creates a temporary\r\n            // Proposal object and `proposals.push(...)`\r\n            // appends it to the end of `proposals`.\r\n            proposals.push(Proposal({name: proposalNames[i], voteCount: 0}));\r\n        }\r\n    }\r\n\r\n    function getMyVote() public view returns (Voter memory) {\r\n        return voters[msg.sender];\r\n    }\r\n\r\n    function getNumOfCandidates() public view returns (uint256) {\r\n        return proposals.length;\r\n    }\r\n\r\n    function getCandidate(uint8 candidateID)\r\n        public\r\n        view\r\n        returns (bytes32, uint256)\r\n    {\r\n        return (proposals[candidateID].name, proposals[candidateID].voteCount);\r\n    }\r\n\r\n    // function getAllVoters() public view returns (Voter[] memory) {\r\n    //     Voter[] memory ret = new Voter[](5);\r\n    //     for (uint256 i = 0; i < 1; i++) {\r\n    //         ret[i] = voters[i];\r\n    //     }\r\n    //     return ret;\r\n    // }\r\n\r\n    // function getAllVoters() public view returns (address[] memory){\r\n    //     address[] memory ret = new address[](addressRegistryCount);\r\n    //     for (uint i = 0; i < addressRegistryCount; i++) {\r\n    //         ret[i] = addresses[i];\r\n    //     }\r\n    //     return ret;\r\n    // }\r\n\r\n    /// Give your vote (including votes delegated to you)\r\n    /// to proposal `proposals[proposal].name`.\r\n    function vote(uint256 proposal) external {\r\n        Voter storage sender = voters[msg.sender];\r\n        // require(sender.weight != 0, \"Has no right to vote\");\r\n        require(!sender.voted, \"Already voted.\");\r\n        sender.voted = true;\r\n        sender.vote = proposal;\r\n\r\n        // If `proposal` is out of the range of the array,\r\n        // this will throw automatically and revert all\r\n        // changes.\r\n        // proposals[proposal].voteCount += sender.weight;\r\n        proposals[proposal].voteCount++;\r\n    }\r\n\r\n    /// @dev Computes the winning proposal taking all\r\n    /// previous votes into account.\r\n    function winningProposal() public view returns (uint256 winningProposal_) {\r\n        uint256 winningVoteCount = 0;\r\n        for (uint256 p = 0; p < proposals.length; p++) {\r\n            if (proposals[p].voteCount > winningVoteCount) {\r\n                winningVoteCount = proposals[p].voteCount;\r\n                winningProposal_ = p;\r\n            }\r\n        }\r\n    }\r\n\r\n    // Calls winningProposal() function to get the index\r\n    // of the winner contained in the proposals array and then\r\n    // returns the name of the winner\r\n    function winnerName() external view returns (bytes32 winnerName_) {\r\n        winnerName_ = proposals[winningProposal()].name;\r\n    }\r\n}\r\n",
  "sourcePath": "/mnt/d/github-projects/blockchain-voting-system/express-server/contracts/Ballot.sol",
  "compiler": {
    "name": "solc",
    "version": "0.8.17+commit.8df45f5f.Emscripten.clang"
  },
  "schemaVersion": "3.4.10",
  "updatedAt": "2022-11-08T12:06:01.371Z",
  "networkType": "ethereum",
  "devdoc": {
    "kind": "dev",
    "methods": {
      "winningProposal()": {
        "details": "Computes the winning proposal taking all previous votes into account."
      }
    },
    "title": "Voting with delegation.",
    "version": 1
  },
  "userdoc": {
    "kind": "user",
    "methods": {
      "constructor": {
        "notice": "Create a new ballot to choose one of `proposalNames`."
      },
      "vote(uint256)": {
        "notice": "Give your vote (including votes delegated to you) to proposal `proposals[proposal].name`."
      }
    },
    "version": 1
  }
}