{
  "contractName": "Ballot",
  "abi": [
    {
      "inputs": [],
      "stateMutability": "nonpayable",
      "type": "constructor"
    },
    {
      "inputs": [
        {
          "internalType": "uint256",
          "name": "",
          "type": "uint256"
        }
      ],
      "name": "proposals",
      "outputs": [
        {
          "internalType": "bytes32",
          "name": "name",
          "type": "bytes32"
        },
        {
          "internalType": "uint256",
          "name": "voteCount",
          "type": "uint256"
        }
      ],
      "stateMutability": "view",
      "type": "function",
      "constant": true
    },
    {
      "inputs": [
        {
          "internalType": "address",
          "name": "",
          "type": "address"
        }
      ],
      "name": "voters",
      "outputs": [
        {
          "internalType": "bool",
          "name": "voted",
          "type": "bool"
        },
        {
          "internalType": "uint256",
          "name": "vote",
          "type": "uint256"
        }
      ],
      "stateMutability": "view",
      "type": "function",
      "constant": true
    },
    {
      "inputs": [],
      "name": "endElection",
      "outputs": [],
      "stateMutability": "nonpayable",
      "type": "function"
    },
    {
      "inputs": [],
      "name": "activateElection",
      "outputs": [],
      "stateMutability": "nonpayable",
      "type": "function"
    },
    {
      "inputs": [],
      "name": "getElectionStatus",
      "outputs": [
        {
          "internalType": "bool",
          "name": "",
          "type": "bool"
        }
      ],
      "stateMutability": "view",
      "type": "function",
      "constant": true
    },
    {
      "inputs": [],
      "name": "getElectionStartDate",
      "outputs": [
        {
          "internalType": "uint256",
          "name": "",
          "type": "uint256"
        }
      ],
      "stateMutability": "view",
      "type": "function",
      "constant": true
    },
    {
      "inputs": [],
      "name": "getElectionEndDate",
      "outputs": [
        {
          "internalType": "uint256",
          "name": "",
          "type": "uint256"
        }
      ],
      "stateMutability": "view",
      "type": "function",
      "constant": true
    },
    {
      "inputs": [
        {
          "internalType": "bytes32",
          "name": "n",
          "type": "bytes32"
        }
      ],
      "name": "addCandidate",
      "outputs": [
        {
          "internalType": "uint256",
          "name": "arrayLength",
          "type": "uint256"
        }
      ],
      "stateMutability": "nonpayable",
      "type": "function"
    },
    {
      "inputs": [],
      "name": "getMyVote",
      "outputs": [
        {
          "components": [
            {
              "internalType": "bool",
              "name": "voted",
              "type": "bool"
            },
            {
              "internalType": "uint256",
              "name": "vote",
              "type": "uint256"
            }
          ],
          "internalType": "struct Ballot.Voter",
          "name": "",
          "type": "tuple"
        }
      ],
      "stateMutability": "view",
      "type": "function",
      "constant": true
    },
    {
      "inputs": [],
      "name": "getNumOfCandidates",
      "outputs": [
        {
          "internalType": "uint256",
          "name": "",
          "type": "uint256"
        }
      ],
      "stateMutability": "view",
      "type": "function",
      "constant": true
    },
    {
      "inputs": [
        {
          "internalType": "uint8",
          "name": "candidateID",
          "type": "uint8"
        }
      ],
      "name": "getCandidate",
      "outputs": [
        {
          "internalType": "bytes32",
          "name": "",
          "type": "bytes32"
        },
        {
          "internalType": "uint256",
          "name": "",
          "type": "uint256"
        }
      ],
      "stateMutability": "view",
      "type": "function",
      "constant": true
    },
    {
      "inputs": [
        {
          "internalType": "uint256",
          "name": "proposal",
          "type": "uint256"
        }
      ],
      "name": "vote",
      "outputs": [],
      "stateMutability": "nonpayable",
      "type": "function"
    },
    {
      "inputs": [],
      "name": "winningProposal",
      "outputs": [
        {
          "internalType": "uint256",
          "name": "winningProposal_",
          "type": "uint256"
        }
      ],
      "stateMutability": "view",
      "type": "function",
      "constant": true
    },
    {
      "inputs": [],
      "name": "winnerName",
      "outputs": [
        {
          "internalType": "bytes32",
          "name": "winnerName_",
          "type": "bytes32"
        }
      ],
      "stateMutability": "view",
      "type": "function",
      "constant": true
    }
  ],
  "bytecode": "0x608060405260016000806101000a81548160ff02191690831515021790555063636ff64860015563637147c860025534801561003a57600080fd5b50600060405180606001604052807f48696368656d204661746172000000000000000000000000000000000000000081526020017f42617373656d20476f757479000000000000000000000000000000000000000081526020017f4b6172696d2042656e204b68616c656400000000000000000000000000000000815250905060005b600381101561014757600460405180604001604052808484600381106100e6576100e561014e565b5b602002015181526020016000815250908060018154018082558091505060019003906000526020600020906002020160009091909190915060008201518160000155602082015181600101555050808061013f906101b6565b9150506100bd565b50506101fe565b7f4e487b7100000000000000000000000000000000000000000000000000000000600052603260045260246000fd5b7f4e487b7100000000000000000000000000000000000000000000000000000000600052601160045260246000fd5b6000819050919050565b60006101c1826101ac565b91507fffffffffffffffffffffffffffffffffffffffffffffffffffffffffffffffff82036101f3576101f261017d565b5b600182019050919050565b610b198061020d6000396000f3fe608060405234801561001057600080fd5b50600436106100ea5760003560e01c80638cb647d31161008c578063cde9370f11610066578063cde9370f1461023d578063e2ba53f01461026e578063e8685ba11461028c578063f8f4b52e146102aa576100ea565b80638cb647d3146101d0578063a39aeaa4146101ee578063a3ec138d1461020c576100ea565b8063230d6ed8116100c8578063230d6ed81461015a5780634f6119631461018a57806359f78468146101a8578063609ff1bd146101b2576100ea565b80630121b93f146100ef578063013cf08b1461010b578063122902a61461013c575b600080fd5b610109600480360381019061010491906106fb565b6102b4565b005b610125600480360381019061012091906106fb565b6103ae565b604051610133929190610750565b60405180910390f35b6101446103e2565b6040516101519190610794565b60405180910390f35b610174600480360381019061016f91906107db565b6103f8565b6040516101819190610808565b60405180910390f35b610192610467565b60405161019f9190610808565b60405180910390f35b6101b0610471565b005b6101ba61048d565b6040516101c79190610808565b60405180910390f35b6101d8610515565b6040516101e59190610870565b60405180910390f35b6101f6610591565b6040516102039190610808565b60405180910390f35b610226600480360381019061022191906108e9565b61059b565b604051610234929190610916565b60405180910390f35b61025760048036038101906102529190610978565b6105cc565b604051610265929190610750565b60405180910390f35b61027661062a565b60405161028391906109a5565b60405180910390f35b61029461065e565b6040516102a19190610808565b60405180910390f35b6102b261066b565b005b6000600360003373ffffffffffffffffffffffffffffffffffffffff1673ffffffffffffffffffffffffffffffffffffffff16815260200190815260200160002090508060000160009054906101000a900460ff1615610349576040517f08c379a000000000000000000000000000000000000000000000000000000000815260040161034090610a1d565b60405180910390fd5b60018160000160006101000a81548160ff0219169083151502179055508181600101819055506004828154811061038357610382610a3d565b5b906000526020600020906002020160010160008154809291906103a590610a9b565b91905055505050565b600481815481106103be57600080fd5b90600052602060002090600202016000915090508060000154908060010154905082565b60008060009054906101000a900460ff16905090565b6000610402610687565b828160000181815250506000816020018181525050600481908060018154018082558091505060019003906000526020600020906002020160009091909190915060008201518160000155602082015181600101555050600480549050915050919050565b6000600154905090565b60008060006101000a81548160ff021916908315150217905550565b6000806000905060005b6004805490508110156105105781600482815481106104b9576104b8610a3d565b5b90600052602060002090600202016001015411156104fd57600481815481106104e5576104e4610a3d565b5b90600052602060002090600202016001015491508092505b808061050890610a9b565b915050610497565b505090565b61051d6106a4565b600360003373ffffffffffffffffffffffffffffffffffffffff1673ffffffffffffffffffffffffffffffffffffffff1681526020019081526020016000206040518060400160405290816000820160009054906101000a900460ff16151515158152602001600182015481525050905090565b6000600254905090565b60036020528060005260406000206000915090508060000160009054906101000a900460ff16908060010154905082565b60008060048360ff16815481106105e6576105e5610a3d565b5b90600052602060002090600202016000015460048460ff168154811061060f5761060e610a3d565b5b90600052602060002090600202016001015491509150915091565b6000600461063661048d565b8154811061064757610646610a3d565b5b906000526020600020906002020160000154905090565b6000600480549050905090565b60016000806101000a81548160ff021916908315150217905550565b604051806040016040528060008019168152602001600081525090565b6040518060400160405280600015158152602001600081525090565b600080fd5b6000819050919050565b6106d8816106c5565b81146106e357600080fd5b50565b6000813590506106f5816106cf565b92915050565b600060208284031215610711576107106106c0565b5b600061071f848285016106e6565b91505092915050565b6000819050919050565b61073b81610728565b82525050565b61074a816106c5565b82525050565b60006040820190506107656000830185610732565b6107726020830184610741565b9392505050565b60008115159050919050565b61078e81610779565b82525050565b60006020820190506107a96000830184610785565b92915050565b6107b881610728565b81146107c357600080fd5b50565b6000813590506107d5816107af565b92915050565b6000602082840312156107f1576107f06106c0565b5b60006107ff848285016107c6565b91505092915050565b600060208201905061081d6000830184610741565b92915050565b61082c81610779565b82525050565b61083b816106c5565b82525050565b6040820160008201516108576000850182610823565b50602082015161086a6020850182610832565b50505050565b60006040820190506108856000830184610841565b92915050565b600073ffffffffffffffffffffffffffffffffffffffff82169050919050565b60006108b68261088b565b9050919050565b6108c6816108ab565b81146108d157600080fd5b50565b6000813590506108e3816108bd565b92915050565b6000602082840312156108ff576108fe6106c0565b5b600061090d848285016108d4565b91505092915050565b600060408201905061092b6000830185610785565b6109386020830184610741565b9392505050565b600060ff82169050919050565b6109558161093f565b811461096057600080fd5b50565b6000813590506109728161094c565b92915050565b60006020828403121561098e5761098d6106c0565b5b600061099c84828501610963565b91505092915050565b60006020820190506109ba6000830184610732565b92915050565b600082825260208201905092915050565b7f416c726561647920766f7465642e000000000000000000000000000000000000600082015250565b6000610a07600e836109c0565b9150610a12826109d1565b602082019050919050565b60006020820190508181036000830152610a36816109fa565b9050919050565b7f4e487b7100000000000000000000000000000000000000000000000000000000600052603260045260246000fd5b7f4e487b7100000000000000000000000000000000000000000000000000000000600052601160045260246000fd5b6000610aa6826106c5565b91507fffffffffffffffffffffffffffffffffffffffffffffffffffffffffffffffff8203610ad857610ad7610a6c565b5b60018201905091905056fea2646970667358221220423838b03bf9f98c55aad3cb7f86577f5b77d4636de5f7373f4ccff23633ad0964736f6c63430008110033",
  "immutableReferences": {},
  "source": "// SPDX-License-Identifier: GPL-3.0\r\npragma solidity >=0.7.0 <0.9.0;\r\n\r\n/// @title Voting with delegation.\r\ncontract Ballot {\r\n\tbool isElectionActive = true;\r\n\tuint256 electionStartDate = 1668281928;\r\n\tuint256 electionEndDate = 1668368328;\r\n\r\n\t// This declares a new complex type which will\r\n\t// be used for variables later.\r\n\t// It will represent a single voter.\r\n\tstruct Voter {\r\n\t\t// uint weight; // weight is accumulated by delegation\r\n\t\tbool voted; // if true, that person already voted\r\n\t\t// address delegate; // person delegated to\r\n\t\tuint256 vote; // index of the voted proposal\r\n\t}\r\n\r\n\t// This is a type for a single proposal.\r\n\tstruct Proposal {\r\n\t\tbytes32 name; // short name (up to 32 bytes)\r\n\t\tuint256 voteCount; // number of accumulated votes\r\n\t}\r\n\r\n\t// address public chairperson;\r\n\r\n\t// This declares a state variable that\r\n\t// stores a `Voter` struct for each possible address.\r\n\tmapping(address => Voter) public voters;\r\n\r\n\t// A dynamically-sized array of `Proposal` structs.\r\n\tProposal[] public proposals;\r\n\r\n\t/// Create a new ballot to choose one of `proposalNames`.\r\n\t// constructor(bytes32[] memory proposalNames) {\r\n\tconstructor() {\r\n\t\t// chairperson = msg.sender;\r\n\t\t// voters[chairperson].weight = 1;\r\n\t\tbytes32[3] memory proposalNames = [\r\n\t\t\tbytes32(\"Hichem Fatar\"),\r\n\t\t\tbytes32(\"Bassem Gouty\"),\r\n\t\t\tbytes32(\"Karim Ben Khaled\")\r\n\t\t];\r\n\r\n\t\t// string[2] memory proposalNames = [\"foo\", \"bar\"];\r\n\r\n\t\t// For each of the provided proposal names,\r\n\t\t// create a new proposal object and add it\r\n\t\t// to the end of the array.\r\n\t\tfor (uint256 i = 0; i < proposalNames.length; i++) {\r\n\t\t\t// `Proposal({...})` creates a temporary\r\n\t\t\t// Proposal object and `proposals.push(...)`\r\n\t\t\t// appends it to the end of `proposals`.\r\n\t\t\tproposals.push(Proposal({ name: proposalNames[i], voteCount: 0 }));\r\n\t\t}\r\n\t}\r\n\r\n\tfunction endElection() public {\r\n\t\tisElectionActive = false;\r\n\t}\r\n\r\n\tfunction activateElection() public {\r\n\t\tisElectionActive = true;\r\n\t}\r\n\r\n\tfunction getElectionStatus() public view returns (bool) {\r\n\t\treturn isElectionActive;\r\n\t}\r\n\r\n\tfunction getElectionStartDate() public view returns (uint256) {\r\n\t\treturn electionStartDate;\r\n\t}\r\n\r\n\tfunction getElectionEndDate() public view returns (uint256) {\r\n\t\treturn electionEndDate;\r\n\t}\r\n\r\n\tfunction addCandidate(bytes32 n) public returns (uint256 arrayLength) {\r\n\t\tProposal memory m;\r\n\t\tm.name = n;\r\n\t\tm.voteCount = 0;\r\n\t\tproposals.push(m);\r\n\t\treturn proposals.length;\r\n\t}\r\n\r\n\tfunction getMyVote() public view returns (Voter memory) {\r\n\t\treturn voters[msg.sender];\r\n\t}\r\n\r\n\tfunction getNumOfCandidates() public view returns (uint256) {\r\n\t\treturn proposals.length;\r\n\t}\r\n\r\n\tfunction getCandidate(uint8 candidateID)\r\n\t\tpublic\r\n\t\tview\r\n\t\treturns (bytes32, uint256)\r\n\t{\r\n\t\treturn (proposals[candidateID].name, proposals[candidateID].voteCount);\r\n\t}\r\n\r\n\t// function getAllVoters() public view returns (Voter[] memory) {\r\n\t//     Voter[] memory ret = new Voter[](5);\r\n\t//     for (uint256 i = 0; i < 1; i++) {\r\n\t//         ret[i] = voters[i];\r\n\t//     }\r\n\t//     return ret;\r\n\t// }\r\n\r\n\t// function getAllVoters() public view returns (address[] memory){\r\n\t//     address[] memory ret = new address[](addressRegistryCount);\r\n\t//     for (uint i = 0; i < addressRegistryCount; i++) {\r\n\t//         ret[i] = addresses[i];\r\n\t//     }\r\n\t//     return ret;\r\n\t// }\r\n\r\n\t/// Give your vote (including votes delegated to you)\r\n\t/// to proposal `proposals[proposal].name`.\r\n\tfunction vote(uint256 proposal) external {\r\n\t\tVoter storage sender = voters[msg.sender];\r\n\t\t// require(sender.weight != 0, \"Has no right to vote\");\r\n\t\trequire(!sender.voted, \"Already voted.\");\r\n\t\tsender.voted = true;\r\n\t\tsender.vote = proposal;\r\n\r\n\t\t// If `proposal` is out of the range of the array,\r\n\t\t// this will throw automatically and revert all\r\n\t\t// changes.\r\n\t\t// proposals[proposal].voteCount += sender.weight;\r\n\t\tproposals[proposal].voteCount++;\r\n\r\n\t\t// // if (maleGender ) {\r\n\t\t// proposals[proposal].maleGenderCount =\r\n\t\t//     maleGender +\r\n\t\t//     proposals[proposal].maleGenderCount;\r\n\t\t// // }\r\n\r\n\t\t// // if (femaleGender ) {\r\n\t\t// proposals[proposal].femaleGenderCount =\r\n\t\t//     femaleGender +\r\n\t\t//     proposals[proposal].femaleGenderCount;\r\n\t\t// // }\r\n\t}\r\n\r\n\t/// @dev Computes the winning proposal taking all\r\n\t/// previous votes into account.\r\n\tfunction winningProposal() public view returns (uint256 winningProposal_) {\r\n\t\tuint256 winningVoteCount = 0;\r\n\t\tfor (uint256 p = 0; p < proposals.length; p++) {\r\n\t\t\tif (proposals[p].voteCount > winningVoteCount) {\r\n\t\t\t\twinningVoteCount = proposals[p].voteCount;\r\n\t\t\t\twinningProposal_ = p;\r\n\t\t\t}\r\n\t\t}\r\n\t}\r\n\r\n\t// Calls winningProposal() function to get the index\r\n\t// of the winner contained in the proposals array and then\r\n\t// returns the name of the winner\r\n\tfunction winnerName() external view returns (bytes32 winnerName_) {\r\n\t\twinnerName_ = proposals[winningProposal()].name;\r\n\t}\r\n}\r\n",
  "sourcePath": "/mnt/d/github-projects/blockchain-voting-system/express-server/contracts/Ballot.sol",
  "compiler": {
    "name": "solc",
    "version": "0.8.17+commit.8df45f5f.Emscripten.clang"
  },
  "schemaVersion": "3.4.10",
  "updatedAt": "2022-11-12T21:12:20.389Z",
  "networkType": "ethereum",
  "devdoc": {
    "kind": "dev",
    "methods": {
      "winningProposal()": {
        "details": "Computes the winning proposal taking all previous votes into account."
      }
    },
    "title": "Voting with delegation.",
    "version": 1
  },
  "userdoc": {
    "kind": "user",
    "methods": {
      "constructor": {
        "notice": "Create a new ballot to choose one of `proposalNames`."
      },
      "vote(uint256)": {
        "notice": "Give your vote (including votes delegated to you) to proposal `proposals[proposal].name`."
      }
    },
    "version": 1
  }
}