{
  "contractName": "Ballot",
  "abi": [
    {
      "inputs": [],
      "stateMutability": "nonpayable",
      "type": "constructor"
    },
    {
      "inputs": [
        {
          "internalType": "uint256",
          "name": "",
          "type": "uint256"
        }
      ],
      "name": "proposals",
      "outputs": [
        {
          "internalType": "bytes32",
          "name": "name",
          "type": "bytes32"
        },
        {
          "internalType": "uint256",
          "name": "voteCount",
          "type": "uint256"
        }
      ],
      "stateMutability": "view",
      "type": "function",
      "constant": true
    },
    {
      "inputs": [
        {
          "internalType": "address",
          "name": "",
          "type": "address"
        }
      ],
      "name": "voters",
      "outputs": [
        {
          "internalType": "bool",
          "name": "voted",
          "type": "bool"
        },
        {
          "internalType": "uint256",
          "name": "vote",
          "type": "uint256"
        }
      ],
      "stateMutability": "view",
      "type": "function",
      "constant": true
    },
    {
      "inputs": [
        {
          "internalType": "bytes32",
          "name": "n",
          "type": "bytes32"
        }
      ],
      "name": "addCandidate",
      "outputs": [
        {
          "internalType": "uint256",
          "name": "arrayLength",
          "type": "uint256"
        }
      ],
      "stateMutability": "nonpayable",
      "type": "function"
    },
    {
      "inputs": [],
      "name": "getMyVote",
      "outputs": [
        {
          "components": [
            {
              "internalType": "bool",
              "name": "voted",
              "type": "bool"
            },
            {
              "internalType": "uint256",
              "name": "vote",
              "type": "uint256"
            }
          ],
          "internalType": "struct Ballot.Voter",
          "name": "",
          "type": "tuple"
        }
      ],
      "stateMutability": "view",
      "type": "function",
      "constant": true
    },
    {
      "inputs": [],
      "name": "getNumOfCandidates",
      "outputs": [
        {
          "internalType": "uint256",
          "name": "",
          "type": "uint256"
        }
      ],
      "stateMutability": "view",
      "type": "function",
      "constant": true
    },
    {
      "inputs": [
        {
          "internalType": "uint8",
          "name": "candidateID",
          "type": "uint8"
        }
      ],
      "name": "getCandidate",
      "outputs": [
        {
          "internalType": "bytes32",
          "name": "",
          "type": "bytes32"
        },
        {
          "internalType": "uint256",
          "name": "",
          "type": "uint256"
        }
      ],
      "stateMutability": "view",
      "type": "function",
      "constant": true
    },
    {
      "inputs": [
        {
          "internalType": "uint256",
          "name": "proposal",
          "type": "uint256"
        }
      ],
      "name": "vote",
      "outputs": [],
      "stateMutability": "nonpayable",
      "type": "function"
    },
    {
      "inputs": [],
      "name": "winningProposal",
      "outputs": [
        {
          "internalType": "uint256",
          "name": "winningProposal_",
          "type": "uint256"
        }
      ],
      "stateMutability": "view",
      "type": "function",
      "constant": true
    },
    {
      "inputs": [],
      "name": "winnerName",
      "outputs": [
        {
          "internalType": "bytes32",
          "name": "winnerName_",
          "type": "bytes32"
        }
      ],
      "stateMutability": "view",
      "type": "function",
      "constant": true
    }
  ],
  "bytecode": "0x608060405234801561001057600080fd5b50600060405180604001604052807f666f6f000000000000000000000000000000000000000000000000000000000081526020017f6261720000000000000000000000000000000000000000000000000000000000815250905060005b60028110156100f75760016040518060400160405280848460028110610096576100956100fe565b5b60200201518152602001600081525090806001815401808255809150506001900390600052602060002090600202016000909190919091506000820151816000015560208201518160010155505080806100ef90610166565b91505061006d565b50506101ae565b7f4e487b7100000000000000000000000000000000000000000000000000000000600052603260045260246000fd5b7f4e487b7100000000000000000000000000000000000000000000000000000000600052601160045260246000fd5b6000819050919050565b60006101718261015c565b91507fffffffffffffffffffffffffffffffffffffffffffffffffffffffffffffffff82036101a3576101a261012d565b5b600182019050919050565b6109d5806101bd6000396000f3fe608060405234801561001057600080fd5b50600436106100935760003560e01c80638cb647d3116100665780638cb647d314610133578063a3ec138d14610151578063cde9370f14610182578063e2ba53f0146101b3578063e8685ba1146101d157610093565b80630121b93f14610098578063013cf08b146100b4578063230d6ed8146100e5578063609ff1bd14610115575b600080fd5b6100b260048036038101906100ad91906105d2565b6101ef565b005b6100ce60048036038101906100c991906105d2565b6102e8565b6040516100dc929190610627565b60405180910390f35b6100ff60048036038101906100fa919061067c565b61031c565b60405161010c91906106a9565b60405180910390f35b61011d61038b565b60405161012a91906106a9565b60405180910390f35b61013b610413565b604051610148919061071d565b60405180910390f35b61016b60048036038101906101669190610796565b61048e565b6040516101799291906107d2565b60405180910390f35b61019c60048036038101906101979190610834565b6104bf565b6040516101aa929190610627565b60405180910390f35b6101bb61051d565b6040516101c89190610861565b60405180910390f35b6101d9610551565b6040516101e691906106a9565b60405180910390f35b60008060003373ffffffffffffffffffffffffffffffffffffffff1673ffffffffffffffffffffffffffffffffffffffff16815260200190815260200160002090508060000160009054906101000a900460ff1615610283576040517f08c379a000000000000000000000000000000000000000000000000000000000815260040161027a906108d9565b60405180910390fd5b60018160000160006101000a81548160ff021916908315150217905550818160010181905550600182815481106102bd576102bc6108f9565b5b906000526020600020906002020160010160008154809291906102df90610957565b91905055505050565b600181815481106102f857600080fd5b90600052602060002090600202016000915090508060000154908060010154905082565b600061032661055e565b828160000181815250506000816020018181525050600181908060018154018082558091505060019003906000526020600020906002020160009091909190915060008201518160000155602082015181600101555050600180549050915050919050565b6000806000905060005b60018054905081101561040e5781600182815481106103b7576103b66108f9565b5b90600052602060002090600202016001015411156103fb57600181815481106103e3576103e26108f9565b5b90600052602060002090600202016001015491508092505b808061040690610957565b915050610395565b505090565b61041b61057b565b6000803373ffffffffffffffffffffffffffffffffffffffff1673ffffffffffffffffffffffffffffffffffffffff1681526020019081526020016000206040518060400160405290816000820160009054906101000a900460ff16151515158152602001600182015481525050905090565b60006020528060005260406000206000915090508060000160009054906101000a900460ff16908060010154905082565b60008060018360ff16815481106104d9576104d86108f9565b5b90600052602060002090600202016000015460018460ff1681548110610502576105016108f9565b5b90600052602060002090600202016001015491509150915091565b6000600161052961038b565b8154811061053a576105396108f9565b5b906000526020600020906002020160000154905090565b6000600180549050905090565b604051806040016040528060008019168152602001600081525090565b6040518060400160405280600015158152602001600081525090565b600080fd5b6000819050919050565b6105af8161059c565b81146105ba57600080fd5b50565b6000813590506105cc816105a6565b92915050565b6000602082840312156105e8576105e7610597565b5b60006105f6848285016105bd565b91505092915050565b6000819050919050565b610612816105ff565b82525050565b6106218161059c565b82525050565b600060408201905061063c6000830185610609565b6106496020830184610618565b9392505050565b610659816105ff565b811461066457600080fd5b50565b60008135905061067681610650565b92915050565b60006020828403121561069257610691610597565b5b60006106a084828501610667565b91505092915050565b60006020820190506106be6000830184610618565b92915050565b60008115159050919050565b6106d9816106c4565b82525050565b6106e88161059c565b82525050565b60408201600082015161070460008501826106d0565b50602082015161071760208501826106df565b50505050565b600060408201905061073260008301846106ee565b92915050565b600073ffffffffffffffffffffffffffffffffffffffff82169050919050565b600061076382610738565b9050919050565b61077381610758565b811461077e57600080fd5b50565b6000813590506107908161076a565b92915050565b6000602082840312156107ac576107ab610597565b5b60006107ba84828501610781565b91505092915050565b6107cc816106c4565b82525050565b60006040820190506107e760008301856107c3565b6107f46020830184610618565b9392505050565b600060ff82169050919050565b610811816107fb565b811461081c57600080fd5b50565b60008135905061082e81610808565b92915050565b60006020828403121561084a57610849610597565b5b60006108588482850161081f565b91505092915050565b60006020820190506108766000830184610609565b92915050565b600082825260208201905092915050565b7f416c726561647920766f7465642e000000000000000000000000000000000000600082015250565b60006108c3600e8361087c565b91506108ce8261088d565b602082019050919050565b600060208201905081810360008301526108f2816108b6565b9050919050565b7f4e487b7100000000000000000000000000000000000000000000000000000000600052603260045260246000fd5b7f4e487b7100000000000000000000000000000000000000000000000000000000600052601160045260246000fd5b60006109628261059c565b91507fffffffffffffffffffffffffffffffffffffffffffffffffffffffffffffffff820361099457610993610928565b5b60018201905091905056fea2646970667358221220429c5e0f5a659a805cc02cb445201c84e21f5a65c4fe7af9318f6c6c9d474a0e64736f6c63430008110033",
  "immutableReferences": {},
  "source": "// SPDX-License-Identifier: GPL-3.0\r\npragma solidity >=0.7.0 <0.9.0;\r\n\r\n/// @title Voting with delegation.\r\ncontract Ballot {\r\n    // This declares a new complex type which will\r\n    // be used for variables later.\r\n    // It will represent a single voter.\r\n    struct Voter {\r\n        // uint weight; // weight is accumulated by delegation\r\n        bool voted; // if true, that person already voted\r\n        // address delegate; // person delegated to\r\n        uint256 vote; // index of the voted proposal\r\n    }\r\n\r\n    // This is a type for a single proposal.\r\n    struct Proposal {\r\n        bytes32 name; // short name (up to 32 bytes)\r\n        uint256 voteCount; // number of accumulated votes\r\n    }\r\n\r\n    // address public chairperson;\r\n\r\n    // This declares a state variable that\r\n    // stores a `Voter` struct for each possible address.\r\n    mapping(address => Voter) public voters;\r\n\r\n    // A dynamically-sized array of `Proposal` structs.\r\n    Proposal[] public proposals;\r\n\r\n    /// Create a new ballot to choose one of `proposalNames`.\r\n    // constructor(bytes32[] memory proposalNames) {\r\n    constructor() {\r\n        // chairperson = msg.sender;\r\n        // voters[chairperson].weight = 1;\r\n        bytes32[2] memory proposalNames = [bytes32(\"foo\"), bytes32(\"bar\")];\r\n\r\n        // string[2] memory proposalNames = [\"foo\", \"bar\"];\r\n\r\n        // For each of the provided proposal names,\r\n        // create a new proposal object and add it\r\n        // to the end of the array.\r\n        for (uint256 i = 0; i < proposalNames.length; i++) {\r\n            // `Proposal({...})` creates a temporary\r\n            // Proposal object and `proposals.push(...)`\r\n            // appends it to the end of `proposals`.\r\n            proposals.push(Proposal({name: proposalNames[i], voteCount: 0}));\r\n        }\r\n    }\r\n\r\n    function addCandidate(bytes32 n) public returns (uint256 arrayLength) {\r\n        Proposal memory m;\r\n        m.name = n;\r\n        m.voteCount = 0;\r\n        proposals.push(m);\r\n        return proposals.length;\r\n    }\r\n\r\n    function getMyVote() public view returns (Voter memory) {\r\n        return voters[msg.sender];\r\n    }\r\n\r\n    function getNumOfCandidates() public view returns (uint256) {\r\n        return proposals.length;\r\n    }\r\n\r\n    function getCandidate(uint8 candidateID)\r\n        public\r\n        view\r\n        returns (bytes32, uint256)\r\n    {\r\n        return (proposals[candidateID].name, proposals[candidateID].voteCount);\r\n    }\r\n\r\n    // function getAllVoters() public view returns (Voter[] memory) {\r\n    //     Voter[] memory ret = new Voter[](5);\r\n    //     for (uint256 i = 0; i < 1; i++) {\r\n    //         ret[i] = voters[i];\r\n    //     }\r\n    //     return ret;\r\n    // }\r\n\r\n    // function getAllVoters() public view returns (address[] memory){\r\n    //     address[] memory ret = new address[](addressRegistryCount);\r\n    //     for (uint i = 0; i < addressRegistryCount; i++) {\r\n    //         ret[i] = addresses[i];\r\n    //     }\r\n    //     return ret;\r\n    // }\r\n\r\n    /// Give your vote (including votes delegated to you)\r\n    /// to proposal `proposals[proposal].name`.\r\n    function vote(uint256 proposal) external {\r\n        Voter storage sender = voters[msg.sender];\r\n        // require(sender.weight != 0, \"Has no right to vote\");\r\n        require(!sender.voted, \"Already voted.\");\r\n        sender.voted = true;\r\n        sender.vote = proposal;\r\n\r\n        // If `proposal` is out of the range of the array,\r\n        // this will throw automatically and revert all\r\n        // changes.\r\n        // proposals[proposal].voteCount += sender.weight;\r\n        proposals[proposal].voteCount++;\r\n\r\n        // // if (maleGender ) {\r\n        // proposals[proposal].maleGenderCount =\r\n        //     maleGender +\r\n        //     proposals[proposal].maleGenderCount;\r\n        // // }\r\n\r\n        // // if (femaleGender ) {\r\n        // proposals[proposal].femaleGenderCount =\r\n        //     femaleGender +\r\n        //     proposals[proposal].femaleGenderCount;\r\n        // // }\r\n    }\r\n\r\n    /// @dev Computes the winning proposal taking all\r\n    /// previous votes into account.\r\n    function winningProposal() public view returns (uint256 winningProposal_) {\r\n        uint256 winningVoteCount = 0;\r\n        for (uint256 p = 0; p < proposals.length; p++) {\r\n            if (proposals[p].voteCount > winningVoteCount) {\r\n                winningVoteCount = proposals[p].voteCount;\r\n                winningProposal_ = p;\r\n            }\r\n        }\r\n    }\r\n\r\n    // Calls winningProposal() function to get the index\r\n    // of the winner contained in the proposals array and then\r\n    // returns the name of the winner\r\n    function winnerName() external view returns (bytes32 winnerName_) {\r\n        winnerName_ = proposals[winningProposal()].name;\r\n    }\r\n}\r\n",
  "sourcePath": "/mnt/d/github-projects/blockchain-voting-system/express-server/contracts/Ballot.sol",
  "compiler": {
    "name": "solc",
    "version": "0.8.17+commit.8df45f5f.Emscripten.clang"
  },
  "schemaVersion": "3.4.10",
  "updatedAt": "2022-11-12T13:32:55.723Z",
  "networkType": "ethereum",
  "devdoc": {
    "kind": "dev",
    "methods": {
      "winningProposal()": {
        "details": "Computes the winning proposal taking all previous votes into account."
      }
    },
    "title": "Voting with delegation.",
    "version": 1
  },
  "userdoc": {
    "kind": "user",
    "methods": {
      "constructor": {
        "notice": "Create a new ballot to choose one of `proposalNames`."
      },
      "vote(uint256)": {
        "notice": "Give your vote (including votes delegated to you) to proposal `proposals[proposal].name`."
      }
    },
    "version": 1
  }
}