{
	"contractName": "Contacts",
	"abi": [
		{
			"inputs": [],
			"stateMutability": "nonpayable",
			"type": "constructor"
		},
		{
			"inputs": [
				{
					"internalType": "uint256",
					"name": "",
					"type": "uint256"
				}
			],
			"name": "contacts",
			"outputs": [
				{
					"internalType": "uint256",
					"name": "id",
					"type": "uint256"
				},
				{
					"internalType": "string",
					"name": "name",
					"type": "string"
				},
				{
					"internalType": "string",
					"name": "phone",
					"type": "string"
				}
			],
			"stateMutability": "view",
			"type": "function",
			"constant": true
		},
		{
			"inputs": [],
			"name": "count",
			"outputs": [
				{
					"internalType": "uint256",
					"name": "",
					"type": "uint256"
				}
			],
			"stateMutability": "view",
			"type": "function",
			"constant": true
		},
		{
			"inputs": [
				{
					"internalType": "string",
					"name": "_name",
					"type": "string"
				},
				{
					"internalType": "string",
					"name": "_phone",
					"type": "string"
				}
			],
			"name": "createContact",
			"outputs": [],
			"stateMutability": "nonpayable",
			"type": "function"
		}
	],
	"bytecode": "0x6080604052600080553480156200001557600080fd5b50620000926040518060400160405280600c81526020017f5a616661722053616c65656d00000000000000000000000000000000000000008152506040518060400160405280600981526020017f31323331323331323300000000000000000000000000000000000000000000008152506200009860201b60201c565b62000500565b600080815480929190620000ac906200015c565b91905055506040518060600160405280600054815260200183815260200182815250600160008054815260200190815260200160002060008201518160000155602082015181600101908162000103919062000419565b5060408201518160020190816200011b919062000419565b509050505050565b7f4e487b7100000000000000000000000000000000000000000000000000000000600052601160045260246000fd5b6000819050919050565b6000620001698262000152565b91507fffffffffffffffffffffffffffffffffffffffffffffffffffffffffffffffff82036200019e576200019d62000123565b5b600182019050919050565b600081519050919050565b7f4e487b7100000000000000000000000000000000000000000000000000000000600052604160045260246000fd5b7f4e487b7100000000000000000000000000000000000000000000000000000000600052602260045260246000fd5b600060028204905060018216806200022b57607f821691505b602082108103620002415762000240620001e3565b5b50919050565b60008190508160005260206000209050919050565b60006020601f8301049050919050565b600082821b905092915050565b600060088302620002ab7fffffffffffffffffffffffffffffffffffffffffffffffffffffffffffffffff826200026c565b620002b786836200026c565b95508019841693508086168417925050509392505050565b6000819050919050565b6000620002fa620002f4620002ee8462000152565b620002cf565b62000152565b9050919050565b6000819050919050565b6200031683620002d9565b6200032e620003258262000301565b84845462000279565b825550505050565b600090565b6200034562000336565b620003528184846200030b565b505050565b5b818110156200037a576200036e6000826200033b565b60018101905062000358565b5050565b601f821115620003c957620003938162000247565b6200039e846200025c565b81016020851015620003ae578190505b620003c6620003bd856200025c565b83018262000357565b50505b505050565b600082821c905092915050565b6000620003ee60001984600802620003ce565b1980831691505092915050565b6000620004098383620003db565b9150826002028217905092915050565b6200042482620001a9565b67ffffffffffffffff81111562000440576200043f620001b4565b5b6200044c825462000212565b620004598282856200037e565b600060209050601f8311600181146200049157600084156200047c578287015190505b620004888582620003fb565b865550620004f8565b601f198416620004a18662000247565b60005b82811015620004cb57848901518255600182019150602085019450602081019050620004a4565b86831015620004eb5784890151620004e7601f891682620003db565b8355505b6001600288020188555050505b505050505050565b61092580620005106000396000f3fe608060405234801561001057600080fd5b50600436106100415760003560e01c806306661abd146100465780633dce492014610064578063e0f478cb14610080575b600080fd5b61004e6100b2565b60405161005b9190610290565b60405180910390f35b61007e60048036038101906100799190610405565b6100b8565b005b61009a600480360381019061009591906104a9565b61013d565b6040516100a993929190610555565b60405180910390f35b60005481565b6000808154809291906100ca906105c9565b91905055506040518060600160405280600054815260200183815260200182815250600160008054815260200190815260200160002060008201518160000155602082015181600101908161011f919061081d565b506040820151816002019081610135919061081d565b509050505050565b600160205280600052604060002060009150905080600001549080600101805461016690610640565b80601f016020809104026020016040519081016040528092919081815260200182805461019290610640565b80156101df5780601f106101b4576101008083540402835291602001916101df565b820191906000526020600020905b8154815290600101906020018083116101c257829003601f168201915b5050505050908060020180546101f490610640565b80601f016020809104026020016040519081016040528092919081815260200182805461022090610640565b801561026d5780601f106102425761010080835404028352916020019161026d565b820191906000526020600020905b81548152906001019060200180831161025057829003601f168201915b5050505050905083565b6000819050919050565b61028a81610277565b82525050565b60006020820190506102a56000830184610281565b92915050565b6000604051905090565b600080fd5b600080fd5b600080fd5b600080fd5b6000601f19601f8301169050919050565b7f4e487b7100000000000000000000000000000000000000000000000000000000600052604160045260246000fd5b610312826102c9565b810181811067ffffffffffffffff82111715610331576103306102da565b5b80604052505050565b60006103446102ab565b90506103508282610309565b919050565b600067ffffffffffffffff8211156103705761036f6102da565b5b610379826102c9565b9050602081019050919050565b82818337600083830152505050565b60006103a86103a384610355565b61033a565b9050828152602081018484840111156103c4576103c36102c4565b5b6103cf848285610386565b509392505050565b600082601f8301126103ec576103eb6102bf565b5b81356103fc848260208601610395565b91505092915050565b6000806040838503121561041c5761041b6102b5565b5b600083013567ffffffffffffffff81111561043a576104396102ba565b5b610446858286016103d7565b925050602083013567ffffffffffffffff811115610467576104666102ba565b5b610473858286016103d7565b9150509250929050565b61048681610277565b811461049157600080fd5b50565b6000813590506104a38161047d565b92915050565b6000602082840312156104bf576104be6102b5565b5b60006104cd84828501610494565b91505092915050565b600081519050919050565b600082825260208201905092915050565b60005b838110156105105780820151818401526020810190506104f5565b60008484015250505050565b6000610527826104d6565b61053181856104e1565b93506105418185602086016104f2565b61054a816102c9565b840191505092915050565b600060608201905061056a6000830186610281565b818103602083015261057c818561051c565b90508181036040830152610590818461051c565b9050949350505050565b7f4e487b7100000000000000000000000000000000000000000000000000000000600052601160045260246000fd5b60006105d482610277565b91507fffffffffffffffffffffffffffffffffffffffffffffffffffffffffffffffff82036106065761060561059a565b5b600182019050919050565b7f4e487b7100000000000000000000000000000000000000000000000000000000600052602260045260246000fd5b6000600282049050600182168061065857607f821691505b60208210810361066b5761066a610611565b5b50919050565b60008190508160005260206000209050919050565b60006020601f8301049050919050565b600082821b905092915050565b6000600883026106d37fffffffffffffffffffffffffffffffffffffffffffffffffffffffffffffffff82610696565b6106dd8683610696565b95508019841693508086168417925050509392505050565b6000819050919050565b600061071a61071561071084610277565b6106f5565b610277565b9050919050565b6000819050919050565b610734836106ff565b61074861074082610721565b8484546106a3565b825550505050565b600090565b61075d610750565b61076881848461072b565b505050565b5b8181101561078c57610781600082610755565b60018101905061076e565b5050565b601f8211156107d1576107a281610671565b6107ab84610686565b810160208510156107ba578190505b6107ce6107c685610686565b83018261076d565b50505b505050565b600082821c905092915050565b60006107f4600019846008026107d6565b1980831691505092915050565b600061080d83836107e3565b9150826002028217905092915050565b610826826104d6565b67ffffffffffffffff81111561083f5761083e6102da565b5b6108498254610640565b610854828285610790565b600060209050601f8311600181146108875760008415610875578287015190505b61087f8582610801565b8655506108e7565b601f19841661089586610671565b60005b828110156108bd57848901518255600182019150602085019450602081019050610898565b868310156108da57848901516108d6601f8916826107e3565b8355505b6001600288020188555050505b50505050505056fea2646970667358221220e2addb199dffc9cc1cf932bc2db8526066c3e520279809b4a010de6a1958ab4464736f6c63430008110033",
	"immutableReferences": {},
	"source": "// SPDX-License-Identifier: UNLICENSED\r\npragma solidity ^0.8.17;\r\n\r\ncontract Contacts {\r\n    uint256 public count = 0; // state variable\r\n\r\n    struct Contact {\r\n        uint256 id;\r\n        string name;\r\n        string phone;\r\n    }\r\n\r\n    constructor() {\r\n        createContact(\"Zafar Saleem\", \"123123123\");\r\n    }\r\n\r\n    mapping(uint256 => Contact) public contacts;\r\n\r\n    function createContact(string memory _name, string memory _phone) public {\r\n        count++;\r\n        contacts[count] = Contact(count, _name, _phone);\r\n    }\r\n}\r\n",
	"sourcePath": "/mnt/d/github-projects/blockchain-voting-system/express-server/contracts/Contacts.sol",
	"compiler": {
		"name": "solc",
		"version": "0.8.17+commit.8df45f5f.Emscripten.clang"
	},
	"schemaVersion": "3.4.10",
	"updatedAt": "2022-11-12T13:32:57.583Z",
	"networkType": "ethereum",
	"devdoc": {
		"kind": "dev",
		"methods": {},
		"version": 1
	},
	"userdoc": {
		"kind": "user",
		"methods": {},
		"version": 1
	}
}